{
  "_format": "hh-sol-artifact-1",
  "contractName": "LeelaGame",
  "sourceName": "contracts/LeelaGame.sol",
  "abi": [
    {
      "inputs": [],
      "stateMutability": "nonpayable",
      "type": "constructor"
    },
    {
      "anonymous": false,
      "inputs": [
        {
          "indexed": true,
          "internalType": "uint256",
          "name": "commentId",
          "type": "uint256"
        },
        {
          "indexed": true,
          "internalType": "uint256",
          "name": "reportId",
          "type": "uint256"
        },
        {
          "indexed": true,
          "internalType": "address",
          "name": "actor",
          "type": "address"
        },
        {
          "indexed": false,
          "internalType": "string",
          "name": "content",
          "type": "string"
        },
        {
          "indexed": false,
          "internalType": "uint256",
          "name": "timestamp",
          "type": "uint256"
        },
        {
          "indexed": false,
          "internalType": "enum LeelaGame.ActionType",
          "name": "action",
          "type": "uint8"
        }
      ],
      "name": "CommentAction",
      "type": "event"
    },
    {
      "anonymous": false,
      "inputs": [
        {
          "indexed": true,
          "internalType": "address",
          "name": "roller",
          "type": "address"
        },
        {
          "indexed": true,
          "internalType": "uint8",
          "name": "rolled",
          "type": "uint8"
        },
        {
          "indexed": true,
          "internalType": "uint256",
          "name": "currentPlan",
          "type": "uint256"
        }
      ],
      "name": "DiceRolled",
      "type": "event"
    },
    {
      "anonymous": false,
      "inputs": [
        {
          "indexed": true,
          "internalType": "uint256",
          "name": "reportId",
          "type": "uint256"
        },
        {
          "indexed": true,
          "internalType": "address",
          "name": "actor",
          "type": "address"
        },
        {
          "indexed": false,
          "internalType": "string",
          "name": "content",
          "type": "string"
        },
        {
          "indexed": false,
          "internalType": "uint256",
          "name": "plan",
          "type": "uint256"
        },
        {
          "indexed": false,
          "internalType": "uint256",
          "name": "timestamp",
          "type": "uint256"
        },
        {
          "indexed": false,
          "internalType": "enum LeelaGame.ActionType",
          "name": "action",
          "type": "uint8"
        }
      ],
      "name": "ReportAction",
      "type": "event"
    },
    {
      "inputs": [
        {
          "internalType": "uint256",
          "name": "reportId",
          "type": "uint256"
        },
        {
          "internalType": "string",
          "name": "content",
          "type": "string"
        }
      ],
      "name": "addComment",
      "outputs": [],
      "stateMutability": "nonpayable",
      "type": "function"
    },
    {
      "inputs": [
        {
          "internalType": "address",
          "name": "playerAddress",
          "type": "address"
        }
      ],
      "name": "checkGameStatus",
      "outputs": [
        {
          "internalType": "bool",
          "name": "isStart",
          "type": "bool"
        },
        {
          "internalType": "bool",
          "name": "isFinished",
          "type": "bool"
        }
      ],
      "stateMutability": "view",
      "type": "function"
    },
    {
      "inputs": [
        {
          "internalType": "uint256",
          "name": "",
          "type": "uint256"
        }
      ],
      "name": "comments",
      "outputs": [
        {
          "internalType": "uint256",
          "name": "commentId",
          "type": "uint256"
        },
        {
          "internalType": "uint256",
          "name": "reportId",
          "type": "uint256"
        },
        {
          "internalType": "address",
          "name": "commenter",
          "type": "address"
        },
        {
          "internalType": "string",
          "name": "content",
          "type": "string"
        },
        {
          "internalType": "uint256",
          "name": "timestamp",
          "type": "uint256"
        }
      ],
      "stateMutability": "view",
      "type": "function"
    },
    {
      "inputs": [
        {
          "internalType": "string",
          "name": "content",
          "type": "string"
        }
      ],
      "name": "createReport",
      "outputs": [],
      "stateMutability": "nonpayable",
      "type": "function"
    },
    {
      "inputs": [
        {
          "internalType": "uint256",
          "name": "commentId",
          "type": "uint256"
        }
      ],
      "name": "deleteComment",
      "outputs": [],
      "stateMutability": "nonpayable",
      "type": "function"
    },
    {
      "inputs": [
        {
          "internalType": "uint256",
          "name": "reportId",
          "type": "uint256"
        }
      ],
      "name": "deleteReport",
      "outputs": [],
      "stateMutability": "nonpayable",
      "type": "function"
    },
    {
      "inputs": [
        {
          "internalType": "uint256",
          "name": "reportId",
          "type": "uint256"
        }
      ],
      "name": "getAllCommentsForReport",
      "outputs": [
        {
          "components": [
            {
              "internalType": "uint256",
              "name": "commentId",
              "type": "uint256"
            },
            {
              "internalType": "uint256",
              "name": "reportId",
              "type": "uint256"
            },
            {
              "internalType": "address",
              "name": "commenter",
              "type": "address"
            },
            {
              "internalType": "string",
              "name": "content",
              "type": "string"
            },
            {
              "internalType": "uint256",
              "name": "timestamp",
              "type": "uint256"
            }
          ],
          "internalType": "struct LeelaGame.Comment[]",
          "name": "",
          "type": "tuple[]"
        }
      ],
      "stateMutability": "view",
      "type": "function"
    },
    {
      "inputs": [],
      "name": "getAllReports",
      "outputs": [
        {
          "components": [
            {
              "internalType": "uint256",
              "name": "reportId",
              "type": "uint256"
            },
            {
              "internalType": "address",
              "name": "reporter",
              "type": "address"
            },
            {
              "internalType": "string",
              "name": "content",
              "type": "string"
            },
            {
              "internalType": "uint256",
              "name": "plan",
              "type": "uint256"
            },
            {
              "internalType": "uint256",
              "name": "timestamp",
              "type": "uint256"
            },
            {
              "internalType": "uint256[]",
              "name": "commentIds",
              "type": "uint256[]"
            }
          ],
          "internalType": "struct LeelaGame.Report[]",
          "name": "",
          "type": "tuple[]"
        }
      ],
      "stateMutability": "view",
      "type": "function"
    },
    {
      "inputs": [
        {
          "internalType": "address",
          "name": "player",
          "type": "address"
        }
      ],
      "name": "getPlanHistory",
      "outputs": [
        {
          "internalType": "uint256[]",
          "name": "",
          "type": "uint256[]"
        }
      ],
      "stateMutability": "view",
      "type": "function"
    },
    {
      "inputs": [
        {
          "internalType": "uint256",
          "name": "reportId",
          "type": "uint256"
        }
      ],
      "name": "getReport",
      "outputs": [
        {
          "components": [
            {
              "internalType": "uint256",
              "name": "reportId",
              "type": "uint256"
            },
            {
              "internalType": "address",
              "name": "reporter",
              "type": "address"
            },
            {
              "internalType": "string",
              "name": "content",
              "type": "string"
            },
            {
              "internalType": "uint256",
              "name": "plan",
              "type": "uint256"
            },
            {
              "internalType": "uint256",
              "name": "timestamp",
              "type": "uint256"
            },
            {
              "internalType": "uint256[]",
              "name": "commentIds",
              "type": "uint256[]"
            }
          ],
          "internalType": "struct LeelaGame.Report",
          "name": "",
          "type": "tuple"
        }
      ],
      "stateMutability": "view",
      "type": "function"
    },
    {
      "inputs": [
        {
          "internalType": "address",
          "name": "player",
          "type": "address"
        }
      ],
      "name": "getRollHistory",
      "outputs": [
        {
          "internalType": "uint8[]",
          "name": "",
          "type": "uint8[]"
        }
      ],
      "stateMutability": "view",
      "type": "function"
    },
    {
      "inputs": [
        {
          "internalType": "address",
          "name": "",
          "type": "address"
        },
        {
          "internalType": "uint256",
          "name": "",
          "type": "uint256"
        }
      ],
      "name": "playerPlans",
      "outputs": [
        {
          "internalType": "uint256",
          "name": "",
          "type": "uint256"
        }
      ],
      "stateMutability": "view",
      "type": "function"
    },
    {
      "inputs": [
        {
          "internalType": "address",
          "name": "",
          "type": "address"
        }
      ],
      "name": "playerReportCreated",
      "outputs": [
        {
          "internalType": "bool",
          "name": "",
          "type": "bool"
        }
      ],
      "stateMutability": "view",
      "type": "function"
    },
    {
      "inputs": [
        {
          "internalType": "address",
          "name": "",
          "type": "address"
        },
        {
          "internalType": "uint256",
          "name": "",
          "type": "uint256"
        }
      ],
      "name": "playerRolls",
      "outputs": [
        {
          "internalType": "uint8",
          "name": "",
          "type": "uint8"
        }
      ],
      "stateMutability": "view",
      "type": "function"
    },
    {
      "inputs": [
        {
          "internalType": "address",
          "name": "",
          "type": "address"
        }
      ],
      "name": "players",
      "outputs": [
        {
          "internalType": "uint256",
          "name": "plan",
          "type": "uint256"
        },
        {
          "internalType": "uint256",
          "name": "previousPlan",
          "type": "uint256"
        },
        {
          "internalType": "bool",
          "name": "isStart",
          "type": "bool"
        },
        {
          "internalType": "bool",
          "name": "isFinished",
          "type": "bool"
        },
        {
          "internalType": "uint8",
          "name": "consecutiveSixes",
          "type": "uint8"
        }
      ],
      "stateMutability": "view",
      "type": "function"
    },
    {
      "inputs": [
        {
          "internalType": "uint256",
          "name": "",
          "type": "uint256"
        }
      ],
      "name": "reports",
      "outputs": [
        {
          "internalType": "uint256",
          "name": "reportId",
          "type": "uint256"
        },
        {
          "internalType": "address",
          "name": "reporter",
          "type": "address"
        },
        {
          "internalType": "string",
          "name": "content",
          "type": "string"
        },
        {
          "internalType": "uint256",
          "name": "plan",
          "type": "uint256"
        },
        {
          "internalType": "uint256",
          "name": "timestamp",
          "type": "uint256"
        }
      ],
      "stateMutability": "view",
      "type": "function"
    },
    {
      "inputs": [],
      "name": "rollDice",
      "outputs": [],
      "stateMutability": "nonpayable",
      "type": "function"
    },
    {
      "inputs": [
        {
          "internalType": "uint256",
          "name": "commentId",
          "type": "uint256"
        },
        {
          "internalType": "string",
          "name": "newContent",
          "type": "string"
        }
      ],
      "name": "updateCommentContent",
      "outputs": [],
      "stateMutability": "nonpayable",
      "type": "function"
    },
    {
      "inputs": [
        {
          "internalType": "uint256",
          "name": "reportId",
          "type": "uint256"
        },
        {
          "internalType": "string",
          "name": "newContent",
          "type": "string"
        }
      ],
      "name": "updateReportContent",
      "outputs": [],
      "stateMutability": "nonpayable",
      "type": "function"
    }
  ],
  "bytecode": "0x608060405234801561001057600080fd5b5061001961008d565b604480825260208083019182523360009081526004909152604090819020835181559151600183015582015160029091018054606084015160809094015160ff16620100000262ff0000199415156101000261ff001994151560ff19909316929092179390931617929092161790556100bb565b6040805160a08101825260008082526020820181905291810182905260608101829052608081019190915290565b612262806100ca6000396000f3fe608060405234801561001057600080fd5b50600436106101215760003560e01c80639756a055116100ad578063c942adf711610071578063c942adf71461029d578063de610228146102c1578063e2eb41ff146102d4578063e5f7bb85146102f8578063f3d3ddfa1461031857610121565b80639756a05514610209578063aa7e56831461022a578063ade94a761461023d578063b2ccbe451461025d578063c2f846271461027d57610121565b80634e7f9b19116100f45780634e7f9b191461018a5780635f2defcd146101aa5780637d0b1026146101ca578063837e7cc6146101dd5780638ebb4c15146101e557610121565b80631e2160d1146101265780631f290f8f1461013b57806333efe6061461014e57806337e8292014610177575b600080fd5b6101396101343660046119ce565b61032d565b005b6101396101493660046119e6565b610434565b61016161015c3660046119ce565b6104d5565b60405161016e9190611b61565b60405180910390f35b610139610185366004611993565b6106cb565b61019d6101983660046119ce565b610825565b60405161016e919061205b565b6101bd6101b836600461196a565b610996565b60405161016e919061206e565b6101396101d83660046119ce565b6109c7565b610139610b91565b6101f86101f33660046119ce565b610cdc565b60405161016e9594939291906120b5565b61021c610217366004611949565b610da0565b60405161016e929190611cc6565b6101396102383660046119e6565b610dcb565b61025061024b36600461196a565b610f00565b60405161016e919061211c565b61027061026b366004611949565b610f43565b60405161016e9190611c61565b61029061028b366004611949565b610faf565b60405161016e9190611cbb565b6102b06102ab3660046119ce565b610fc4565b60405161016e959493929190612077565b6101396102cf3660046119e6565b611086565b6102e76102e2366004611949565b611128565b60405161016e9594939291906120f4565b61030b610306366004611949565b61115f565b60405161016e9190611c74565b6103206111e7565b60405161016e9190611c01565b600054811115801561033f5750600081115b6103645760405162461bcd60e51b815260040161035b90611f14565b60405180910390fd5b600081815260026020526040902060018101546001600160a01b0316331461039e5760405162461bcd60e51b815260040161035b90611de7565b60408051808201909152601d8082527f54686973207265706f727420686173206265656e2064656c657465642e00000060209092019182526103e4916002840191611728565b50336001600160a01b0316827f091a93d0df177529f6163a351d8419864f2ab8cf3a9818acc6031be0853be2cf836003015442600260405161042893929190611f91565b60405180910390a35050565b600082815260036020526040902060028101546001600160a01b0316331461046e5760405162461bcd60e51b815260040161035b90611eca565b81516104839060038301906020850190611728565b50336001600160a01b03168160010154847f5bfb3526b4ea79e3e890b4d2f6cb6dcb174473d6410442026e822947555c3bd0854260016040516104c893929190611cd8565b60405180910390a4505050565b60008181526002602052604081206005810180546060939067ffffffffffffffff81111561051357634e487b7160e01b600052604160045260246000fd5b60405190808252806020026020018201604052801561054c57816020015b6105396117ac565b8152602001906001900390816105315790505b50905060005b82548110156106c0576003600084838154811061057f57634e487b7160e01b600052603260045260246000fd5b906000526020600020015481526020019081526020016000206040518060a001604052908160008201548152602001600182015481526020016002820160009054906101000a90046001600160a01b03166001600160a01b03166001600160a01b031681526020016003820180546105f69061218a565b80601f01602080910402602001604051908101604052809291908181526020018280546106229061218a565b801561066f5780601f106106445761010080835404028352916020019161066f565b820191906000526020600020905b81548152906001019060200180831161065257829003601f168201915b505050505081526020016004820154815250508282815181106106a257634e487b7160e01b600052603260045260246000fd5b602002602001018190525080806106b8906121c5565b915050610552565b50925050505b919050565b336000908152600460205260409020805460029091015460ff166107015760405162461bcd60e51b815260040161035b90611e79565b600080549080610710836121c5565b90915550506040805160c08101825260008054808352336020808501918252848601888152606086018890524260808701528651858152808301885260a08701529284526002808252959093208451815590516001820180546001600160a01b0319166001600160a01b03909216919091179055905180519394919361079e93928501929190910190611728565b50606082015160038201556080820151600482015560a082015180516107ce9160058401916020909101906117e4565b505033600081815260076020526040808220805460ff1916600117905581549051929350917f091a93d0df177529f6163a351d8419864f2ab8cf3a9818acc6031be0853be2cf916104289187918791429190611d00565b61082d61181e565b600054821115801561083f5750600082115b61085b5760405162461bcd60e51b815260040161035b90611f14565b600082815260026020818152604092839020835160c0810185528154815260018201546001600160a01b031692810192909252918201805491938401916108a19061218a565b80601f01602080910402602001604051908101604052809291908181526020018280546108cd9061218a565b801561091a5780601f106108ef5761010080835404028352916020019161091a565b820191906000526020600020905b8154815290600101906020018083116108fd57829003601f168201915b5050505050815260200160038201548152602001600482015481526020016005820180548060200260200160405190810160405280929190818152602001828054801561098657602002820191906000526020600020905b815481526020019060010190808311610972575b5050505050815250509050919050565b600660205281600052604060002081815481106109b257600080fd5b90600052602060002001600091509150505481565b600081815260036020526040902060028101546001600160a01b03163314610a015760405162461bcd60e51b815260040161035b90611e2f565b60008281526003602081905260408220828155600181018390556002810180546001600160a01b03191690559190610a3b9083018261185d565b50600060049190910181905560018201548152600260205260408120600501905b8154811015610b495783828281548110610a8657634e487b7160e01b600052603260045260246000fd5b90600052602060002001541415610b375781548290610aa790600190612173565b81548110610ac557634e487b7160e01b600052603260045260246000fd5b9060005260206000200154828281548110610af057634e487b7160e01b600052603260045260246000fd5b906000526020600020018190555081805480610b1c57634e487b7160e01b600052603160045260246000fd5b60019003818190600052602060002001600090559055610b49565b80610b41816121c5565b915050610a5c565b50336001600160a01b03168260010154847f5bfb3526b4ea79e3e890b4d2f6cb6dcb174473d6410442026e822947555c3bd0856003014260026040516104c893929190611d2e565b6000610b9b6113df565b3360008181526005602090815260408083208054600181018255908452828420838204018054601f9092166101000a60ff8181021990931688841691909102179055938352600490915290206002810154929350911615610c3057600080548152600260205260409020600101546001600160a01b03163314610c305760405162461bcd60e51b815260040161035b90611f40565b600281015460ff16158015610c4857508160ff166006145b15610cc157600680825560028201805462010000600160ff19909216821762ff000019161790915533600081815260208481526040808320805495860181558352908220909301849055915160ff8616927fa80d0879cc93cb9b45f20dabe406fe65fc150bf0304985f2e8c37521bf6a7ef691a4610cd8565b600281015460ff1615610cd857610cd8823361143b565b5050565b60036020819052600091825260409091208054600182015460028301549383018054929491936001600160a01b0390921692610d179061218a565b80601f0160208091040260200160405190810160405280929190818152602001828054610d439061218a565b8015610d905780601f10610d6557610100808354040283529160200191610d90565b820191906000526020600020905b815481529060010190602001808311610d7357829003601f168201915b5050505050908060040154905085565b6001600160a01b031660009081526004602052604090206002015460ff808216926101009092041690565b600082815260026020526040902060018101546001600160a01b0316610e035760405162461bcd60e51b815260040161035b90611fe3565b60018054906000610e13836121c5565b90915550506040805160a081018252600180548083526020808401888152338587019081526060860189815242608088015260009485526003808552979094208651815591519482019490945592516002840180546001600160a01b0319166001600160a01b039092169190911790559051805193949293610e9c938501929190910190611728565b50608091909101516004909101556001805460058301805480840182556000918252602082200191909155905460405133928692917f5bfb3526b4ea79e3e890b4d2f6cb6dcb174473d6410442026e822947555c3bd0916104c89188914291611cd8565b60056020528160005260406000208181548110610f1c57600080fd5b9060005260206000209060209182820401919006915091509054906101000a900460ff1681565b6001600160a01b038116600090815260066020908152604091829020805483518184028101840190945280845260609392830182828015610fa357602002820191906000526020600020905b815481526020019060010190808311610f8f575b50505050509050919050565b60076020526000908152604090205460ff1681565b600260208190526000918252604090912080546001820154928201805491936001600160a01b03169291610ff79061218a565b80601f01602080910402602001604051908101604052809291908181526020018280546110239061218a565b80156110705780601f1061104557610100808354040283529160200191611070565b820191906000526020600020905b81548152906001019060200180831161105357829003601f168201915b5050505050908060030154908060040154905085565b600082815260026020526040902060018101546001600160a01b031633146110c05760405162461bcd60e51b815260040161035b90612013565b81516110d59060028301906020850190611728565b50336001600160a01b0316837f091a93d0df177529f6163a351d8419864f2ab8cf3a9818acc6031be0853be2cf84846003015442600160405161111b9493929190611d00565b60405180910390a3505050565b60046020526000908152604090208054600182015460029092015490919060ff808216916101008104821691620100009091041685565b6001600160a01b038116600090815260056020908152604091829020805483518184028101840190945280845260609392830182828015610fa357602002820191906000526020600020906000905b825461010083900a900460ff168152602060019283018181049485019490930390920291018084116111ae575094979650505050505050565b60606000805467ffffffffffffffff81111561121357634e487b7160e01b600052604160045260246000fd5b60405190808252806020026020018201604052801561124c57816020015b61123961181e565b8152602001906001900390816112315790505b50905060015b60005481116113d957600081815260026020818152604092839020835160c0810185528154815260018201546001600160a01b031692810192909252918201805491938401916112a19061218a565b80601f01602080910402602001604051908101604052809291908181526020018280546112cd9061218a565b801561131a5780601f106112ef5761010080835404028352916020019161131a565b820191906000526020600020905b8154815290600101906020018083116112fd57829003601f168201915b5050505050815260200160038201548152602001600482015481526020016005820180548060200260200160405190810160405280929190818152602001828054801561138657602002820191906000526020600020905b815481526020019060010190808311611372575b5050505050815250508260018361139d9190612173565b815181106113bb57634e487b7160e01b600052603260045260246000fd5b602002602001018190525080806113d1906121c5565b915050611252565b50905090565b600080426113ee600143612173565b403360405160200161140293929190611b39565b60408051601f198184030181529190528051602090910120905060006114296006836121e0565b611434906001612136565b9250505090565b6001600160a01b038116600090815260046020526040902060ff8316600614156114d157600281810180546001929061147e90849062010000900460ff1661214e565b92506101000a81548160ff021916908360ff1602179055508060020160029054906101000a900460ff1660ff16600314156114cc5760018101548155600201805462ff000019169055610cd8565b6114e0565b60028101805462ff0000191690555b6114ea83836114ef565b505050565b6001600160a01b03811660009081526004602052604081208054600182018190559091906115219060ff861690612136565b90506048811115611530575080545b80600c141561154157506008611691565b806010141561155257506004611691565b806018141561156357506007611691565b80601d141561157457506006611691565b80602c141561158557506009611691565b806034141561159657506023611691565b80603714156115a757506003611691565b80603d14156115b85750600d611691565b80603f14156115c957506002611691565b80604814156115da57506033611691565b80600a14156115eb57506017611691565b80601114156115fc57506045611691565b806014141561160d57506020611691565b806016141561161e5750603c611691565b80601b141561162f57506029611691565b80601c141561164057506032611691565b806025141561165157506042611691565b80602d141561166257506043611691565b80602e14156116735750603e611691565b806036141561168457506044611691565b6048811115611691575080545b8082556001600160a01b03831660009081526006602090815260408220805460018101825590835291200181905560448114156116e7576002820180546001840183905560ff1961ff0019909116610100171690555b808460ff16846001600160a01b03167fa80d0879cc93cb9b45f20dabe406fe65fc150bf0304985f2e8c37521bf6a7ef660405160405180910390a450505050565b8280546117349061218a565b90600052602060002090601f016020900481019282611756576000855561179c565b82601f1061176f57805160ff191683800117855561179c565b8280016001018555821561179c579182015b8281111561179c578251825591602001919060010190611781565b506117a892915061189c565b5090565b6040518060a00160405280600081526020016000815260200160006001600160a01b0316815260200160608152602001600081525090565b82805482825590600052602060002090810192821561179c579160200282018281111561179c578251825591602001919060010190611781565b6040518060c001604052806000815260200160006001600160a01b03168152602001606081526020016000815260200160008152602001606081525090565b5080546118699061218a565b6000825580601f1061187b5750611899565b601f016020900490600052602060002090810190611899919061189c565b50565b5b808211156117a8576000815560010161189d565b80356001600160a01b03811681146106c657600080fd5b600082601f8301126118d8578081fd5b813567ffffffffffffffff808211156118f3576118f3612216565b604051601f8301601f19168101602001828111828210171561191757611917612216565b60405282815284830160200186101561192e578384fd5b82602086016020830137918201602001929092529392505050565b60006020828403121561195a578081fd5b611963826118b1565b9392505050565b6000806040838503121561197c578081fd5b611985836118b1565b946020939093013593505050565b6000602082840312156119a4578081fd5b813567ffffffffffffffff8111156119ba578182fd5b6119c6848285016118c8565b949350505050565b6000602082840312156119df578081fd5b5035919050565b600080604083850312156119f8578182fd5b82359150602083013567ffffffffffffffff811115611a15578182fd5b611a21858286016118c8565b9150509250929050565b6000815180845260208085019450808401835b83811015611a5a57815187529582019590820190600101611a3e565b509495945050505050565b60038110611a8357634e487b7160e01b600052602160045260246000fd5b9052565b60008151808452815b81811015611aac57602081850181015186830182015201611a90565b81811115611abd5782602083870101525b50601f01601f19169290920160200192915050565b60008151835260018060a01b036020830151166020840152604082015160c06040850152611b0360c0850182611a87565b9050606083015160608501526080830151608085015260a083015184820360a0860152611b308282611a2b565b95945050505050565b928352602083019190915260601b6bffffffffffffffffffffffff1916604082015260540190565b60208082528251828201819052600091906040908185019080840286018301878501865b83811015611bf357888303603f190185528151805184528781015188850152868101516001600160a01b03168785015260608082015160a08287018190529190611bd183880182611a87565b6080948501519790940196909652505094870194925090860190600101611b85565b509098975050505050505050565b6000602080830181845280855180835260408601915060408482028701019250838701855b82811015611c5457603f19888603018452611c42858351611ad2565b94509285019290850190600101611c26565b5092979650505050505050565b6000602082526119636020830184611a2b565b6020808252825182820181905260009190848201906040850190845b81811015611caf57835160ff1683529284019291840191600101611c90565b50909695505050505050565b901515815260200190565b91151582521515602082015260400190565b600060608252611ceb6060830186611a87565b90508360208301526119c66040830184611a65565b600060808252611d136080830187611a87565b9050846020830152836040830152611b306060830184611a65565b606081528354600090819060028104600180831680611d4e57607f831692505b6020808410821415611d6e57634e487b7160e01b87526022600452602487fd5b611d7b8460608a0161206e565b828015611d8f5760018114611da057611dca565b60ff19871682528282019750611dca565b611da98d61212a565b895b87811015611dc457815484820152908601908401611dab565b83019850505b505085965089818901525050505050506119c66040830184611a65565b60208082526028908201527f4f6e6c7920746865207265706f727465722063616e2064656c65746520746865604082015267103932b837b93a1760c11b606082015260800190565b6020808252602a908201527f4f6e6c792074686520636f6d6d656e7465722063616e2064656c657465207468604082015269329031b7b6b6b2b73a1760b11b606082015260800190565b60208082526031908201527f596f75206d757374207374617274207468652067616d65206265666f726520636040820152703932b0ba34b7339030903932b837b93a1760791b606082015260800190565b6020808252602a908201527f4f6e6c792074686520636f6d6d656e7465722063616e20757064617465207468604082015269329031b7b6b6b2b73a1760b11b606082015260800190565b60208082526012908201527124b73b30b634b2103932b837b93a1024a21760711b604082015260600190565b60208082526031908201527f596f75206d757374206372656174652061207265706f7274206265666f7265206040820152703937b63634b733903a3432903234b1b29760791b606082015260800190565b600060808252601d60808301527f54686973207265706f727420686173206265656e2064656c657465642e00000060a083015260c0820190508460208301528360408301526119c66060830184611a65565b6020808252601690820152752932b837b93a103237b2b9903737ba1032bc34b9ba1760511b604082015260600190565b60208082526028908201527f4f6e6c7920746865207265706f727465722063616e2075706461746520746865604082015267103932b837b93a1760c11b606082015260800190565b6000602082526119636020830184611ad2565b90815260200190565b8581526001600160a01b038516602082015260a0604082018190526000906120a190830186611a87565b606083019490945250608001529392505050565b600086825285602083015260018060a01b038516604083015260a060608301526120e260a0830185611a87565b90508260808301529695505050505050565b948552602085019390935290151560408401521515606083015260ff16608082015260a00190565b60ff91909116815260200190565b60009081526020902090565b6000821982111561214957612149612200565b500190565b600060ff821660ff84168060ff0382111561216b5761216b612200565b019392505050565b60008282101561218557612185612200565b500390565b60028104600182168061219e57607f821691505b602082108114156121bf57634e487b7160e01b600052602260045260246000fd5b50919050565b60006000198214156121d9576121d9612200565b5060010190565b6000826121fb57634e487b7160e01b81526012600452602481fd5b500690565b634e487b7160e01b600052601160045260246000fd5b634e487b7160e01b600052604160045260246000fdfea2646970667358221220ab3ed0fc3d09c6ce0ae8d0448174313dcee0bf65601fa216d3595add8b295c5a64736f6c63430008000033",
  "linkReferences": {},
  "deployedLinkReferences": {}
}